:100000000C943E000C945D000C945B000C94A200D8
:100010000C945B000C945B000C945B000C945B00F4
:100020000C945B000C94EE000C945B000C945B0051
:100030000C945B000C945B000C945B000C945B00D4
:100040000C945B000C945B000C945B000C945B00C4
:100050000C945B000C945B000C945B000C945B00B4
:100060000C945B000C945B000C945B000C945B00A4
:100070000C945B000C945B000C945B0011241FBE7D
:10008000CFEFD8E0DEBFCDBF11E0A0E0B1E0EEEEF3
:10009000F7E102C005900D92A230B107D9F721E037
:1000A000A2E0B1E001C01D92A830B207E1F70E94C2
:1000B000F7070C94F50B0C9400001F920F920FB6EB
:1000C0000F9211242F933F934F935F936F937F93DE
:1000D0008F939F93AF93BF93EF93FF93809106010C
:1000E0008A3031F480910301843699F0873611F11A
:1000F000FF91EF91BF91AF919F918F917F916F9100
:100100005F914F913F912F910F900FBE0F901F90D5
:10011000189560E070E083E40E94CF0361E070E036
:1001200083E40E940204E898809106018F5F809327
:100130000601DECF61E070E083E40E94CF0360E05F
:1001400070E0EECF1F920F920FB60F9211242F93F3
:100150003F934F935F936F937F938F939F93AF934F
:10016000BF93EF93FF938091060181111BC08FE530
:100170009AEE0197F1F700C000001A9913C0809120
:100180000701823701F18637F1F482E78093070196
:1001900060E070E083E40E94CF0361E070E083E4FC
:1001A0000E940204FF91EF91BF91AF919F918F91B7
:1001B0007F916F915F914F913F912F910F900FBE63
:1001C0000F901F90189586E78093070161E070E01B
:1001D00083E40E94CF0360E070E0E1CF1F920F92B2
:1001E0000FB60F9211242F933F934F935F936F930A
:1001F0007F938F939F93AF93BF93EF93FF938091E0
:100200000601853069F48091020190E0C297CCF438
:100210008FEF0E94AD03809102018F5F80930201F6
:10022000FF91EF91BF91AF919F918F917F916F91CE
:100230005F914F913F912F910F900FBE0F901F90A4
:10024000189581E080930501EBCF10927C0086E841
:1002500080937A00089510927A00089580917C002E
:10026000807E80937C0080917C006770682B609317
:100270007C0080917A00806480937A0080917A007B
:1002800084FFFCCF80917A00806180937A00209176
:1002900078008091790090E0982F8827820F911D37
:1002A0000895860F911DFC0180810895FC0111B80D
:1002B00010821182128213821482089542E050E06B
:1002C00020B130E0042E02C0359527950A94E2F75C
:1002D0002170FC012193CF014F5F5F4F47305105E3
:1002E00079F70895CF93DF93EC0162E070E084E446
:1002F0000E94020463E070E084E40E9402048A81A8
:10030000811106C099818B81992341F0882359F08E
:1003100066E486E4DF91CF910C94E30298819923FF
:1003200029F0811103C06DE281E4F4CF811103C093
:100330008C81882319F061E48DE2ECCFDF91CF91BD
:10034000089562E070E084E40E94CF0363E070E00F
:1003500084E40E94020460E580E50E94E3022FE746
:1003600089EA93E0215080409040E1F700C000000E
:100370006CE38CE30C94E30262E070E084E40E949E
:10038000020463E070E084E40E94CF0360E580E54E
:100390000E94E3022FE789EA93E0215080409040D9
:1003A000E1F700C000006CE38CE30C94E302CF9310
:1003B000DF93EC016CE38CE30E94E3022FEF87E80C
:1003C00093E1215080409040E1F700C00000CE0151
:1003D0000E94A101CE010E945E018A818823D1F38F
:1003E00060E080E0DF91CF910C94E302CF93DF9344
:1003F000EC0160E580E50E94E3022FEF87E893E1DE
:10040000215080409040E1F700C00000CE010E94E2
:10041000BC018A81811104C0CE010E945E01F9CF26
:1004200060E080E0DF91CF910C94E302FC018081D9
:100430009281882331F08181882319F0892F9111CD
:1004400006C0892F992319F0838181118481089531
:10045000CF93DF93EC018881811127C089818111BD
:1004600024C08A81811121C08B8181111EC08C81A1
:1004700081111BC02FEF81EE94E02150804090400D
:10048000E1F700C00000CE010E945E018881811169
:100490000CC08981811109C08A81811106C08B81BC
:1004A000811103C08C81882321F080E0DF91CF91FE
:1004B000089581E0FBCFCF93DF93EC010E94A1016F
:1004C000CE010E945E01CE010E9428028823C1F362
:1004D0008A81811104C0CE010E945E01F9CF60E0E3
:1004E00080E0DF91CF910C94E302CF93DF93EC0196
:1004F0000E94BC01CE010E945E01CE010E94280232
:100500008823C1F38A81811104C0CE010E945E015B
:10051000F9CF60E080E0DF91CF910C94E3028FEFA0
:100520008AB989B1843051F48FE19EE40197F1F7E3
:1005300000C0000099B181E0943009F080E0089596
:100540001092B200E0EBF0E020812F772083208131
:100550002064208320812F7C2083208122602083BF
:1005600020812E7F2083E1EBF0E02081277F208314
:100570002081276020839B01AC010E94ED099B0133
:10058000AC0160E070E284EF95E40E94590A0E9499
:10059000CB0A6093B3000895F894109285001092EE
:1005A0008400E0E8F0E08081806C8083808180635B
:1005B000808380818160808382E0809381001092BB
:1005C000820078940895CF93C62F682F70E080E062
:1005D00090E00E94FC0A2AE939E949E55FE30E94BC
:1005E000880B0E94CB0A70E080E090E00E94FC0A39
:1005F0009B01AC0160E070E088EC92E40E94EC09A1
:1006000020E030E04FE753E40E94880B20E030E028
:1006100048EC52E40E94590A0E94CB0A7093890068
:10062000609388006C2F70E080E090E00E94FC0AEC
:100630009B01AC0160E070E088EC92E40E94EC0960
:1006400020E030E04FE753E40E94880B20E030E0E8
:1006500048EC52E40E94590A0E94CB0A70938B0026
:1006600060938A00CF910895F894E89AE9E6F0E063
:100670002081982F990F262B922B9083208191E037
:100680008927880F6927862B809582238083789419
:100690000895F894E99AE9E6F0E0908144E0649FD7
:1006A00090011124922B48E0849F90011124922BF9
:1006B0009083308121E0822748E0849FC00111248B
:1006C000622724E0629FB0011124862B809583234A
:1006D000808378940895F894EA9AE9E6F0E09081AE
:1006E00040E1649F90011124922B40E2849F90018D
:1006F0001124922B9083308121E0822740E2849F55
:10070000C0011124622720E1629FB0011124862BD1
:1007100080958323808378940895F8941092B20092
:10072000E0EBF0E08081806C808380818C7F80832F
:10073000E1EBF0E080818560808380818F7E808323
:10074000808188608083808180648083E0E7F0E03E
:1007500080818260808378940895F8941092B2002A
:10076000E0EBF0E09081906C908390819C7F90838F
:10077000E1EBF0E090819560908390819F7E908383
:10078000908198609083908190649083E0E7F0E09E
:100790009081926090838093B3007894089582341E
:1007A00099F018F4813431F008958334B9F0843429
:1007B000F9F0089582B121E030E001C0220F6A957E
:1007C000EAF7822B82B9089585B121E030E001C0BB
:1007D000220F6A95EAF7822B85B9089588B121E046
:1007E00030E001C0220F6A95EAF7822B88B908959C
:1007F0008BB121E030E001C0220F6A95EAF7822B2D
:100800008BB908958234A1F018F4813431F0089541
:100810008334C9F0843411F1089522B181E090E06D
:1008200001C0880F6A95EAF78095822382B90895FE
:1008300025B181E090E001C0880F6A95EAF78095C4
:10084000822385B9089528B181E090E001C0880F26
:100850006A95EAF78095822388B908952BB181E0E3
:1008600090E001C0880F6A95EAF7809582238BB9E2
:1008700008959091C00095FFFCCF8093C600089525
:100880008091C00087FFFCCF8091C6000895109230
:10089000C5008FEC8093C400E0ECF0E080818D7F98
:1008A0008083E1ECF0E08081806C808380818061D6
:1008B000808380818860808380818B7F8083E2EC6D
:1008C000F0E080818F73808380818F7C8083808142
:1008D000887080838081866080830895CF92DF92C4
:1008E000EF92FF920F931F93CF93DF936B01EA0177
:1008F00079018C159D0598F48C010F5F1F4FAE0197
:10090000BC01C7010E9456068FE097E20197F1F7FC
:1009100000C0000088810E943904C801EACFDF913D
:10092000CF911F910F91FF90EF90DF90CF9008959E
:1009300090E0FC01BD97E532F10508F0E3C0ED550C
:10094000FB4F0C94D209C804CE04D304D804DD04B0
:10095000E204E704EC04F104F604FB0400050505D9
:100960000A050F05140519051E05230528052D0583
:10097000320537053C05410546054B055005550533
:100980005A055F05640569056E05730578057D05E3
:1009900060E070E08CED92E40C94A0026BE774E1EF
:1009A00089EE92E4F9CF67E271EF86EF92E4F4CF3B
:1009B00061E270ED82E093E4EFCF6CE477E98AE0E6
:1009C00093E4EACF6EEF74ED82E193E4E5CF61E268
:1009D00070E98BE193E4E0CF62E670ED84E293E4AA
:1009E000DBCF6FE27DE98EE293E4D6CF60E070E08A
:1009F00089E393E4D1CF60E070E084E493E4CCCF6A
:100A000066E676EA8FE493E4C7CF60E070E08CE5B9
:100A100093E4C2CF6EEF74E189E693E4BDCF67E261
:100A200071EF86E793E4B8CF64EA70ED82E893E46F
:100A3000B3CF6AE077E98AE893E4AECF6BE774ED71
:100A400082E993E4A9CF64EA70E98BE993E4A4CF47
:100A500062E470ED84EA93E49FCF67ED73EA8EEA77
:100A600093E49ACF60E070E089EB93E495CF60E087
:100A700070E084EC93E490CF66E676EA8FEC93E442
:100A80008BCF60E070E08CED93E486CF6BE774E190
:100A900089EE93E481CF6CEE71EF86EF93E47CCF27
:100AA00060E070ED82E094E477CF6AE077E98AE075
:100AB00094E472CF6FE175ED82E194E46DCF64EA66
:100AC00070E98BE194E468CF64EA70ED84E294E429
:100AD00063CF6FE27DE98EE294E45ECF6CE57FEF59
:100AE00088E394E459CF60E070E084E494E454CF68
:100AF00066E676EA8FE494E44FCF60E070E08CE540
:100B000094E44ACF0895EF92FF920F931F93CF93EF
:100B1000DF93C82FD62F79010E94CC02F701808184
:100B200081110AC0C13009F4C083DF91CF911F91B8
:100B30000F91FF90EF900895C03609F480C020F522
:100B4000C43409F45AC060F4C23009F444C0C93056
:100B500061F784B58F7B84BD84B58F7784BDE5CF85
:100B6000C53409F44CC0C83401F784B58F7784BD0F
:100B700084B5806484BD8D2FDF91CF911F910F913B
:100B8000FF90EF900C949804C33609F43EC0C0F473
:100B9000C13609F454C0C23641F65A985B9824E62F
:100BA000D29FC00111246FEF70E00E94BE09862F12
:100BB000DF91CF911F910F91FF90EF900C94E30282
:100BC000C53609F447C040F1CF3F09F0AECF81E010
:100BD000F8018083AACFF9E1DF9FC001112420E052
:100BE00030E040ED57E02817390709F49ECFFA01AD
:100BF0003197F1F72F5F3F4FF6CFD2B996CF92B131
:100C00008D2F8095892382B990CF5A9A5B9AE4E61A
:100C1000DE9FC0011124C7CF109289001092880076
:100C200010928B0010928A005B9A5A98FFEF29E687
:100C300088E1F15020408040E1F700C000008FEFD4
:100C400090E0909389008093880090938B0080932C
:100C50008A006BCF109289001092880010928B004E
:100C600010928A005A9A5B989FEFE9E6F8E191505A
:100C7000E040F040E1F7E1CF089580EA8093000181
:100C80001092B90080E28093B800089520E8FC013A
:100C900020830C943D06982F9370891305C0880F0C
:100CA000806A8093000108958FEF089594EA24E804
:100CB0009093BC008091BC0087FFFCCF8091000125
:100CC0008093BB002093BC008091BC0087FFFCCFC9
:100CD0008091B900883161F784EA8093BC008091EB
:100CE000BC0087FFFCCF809100018093BB0084E8AB
:100CF0008093BC008091BC0087FFFCCF7093BB0049
:100D000084E88093BC008091BC0087FFFCCF609397
:100D1000BB0084E88093BC008091BC0087FFFCCFBF
:100D20008091BC0087FFFCCF84EA8093BC00809157
:100D3000BC0087FFFCCF809100018F5F8093BB00D8
:100D400084E88093BC008091BC0087FFFCCF84E8DE
:100D50008093BC008091BC0087FFFCCF8091BB00DA
:100D6000FA01808384E98093BC0080E0089594EACE
:100D700034E89093BC008091BC0087FFFCCF809149
:100D800000018093BB003093BC008091BC0087FFC2
:100D9000FCCF8091B900883161F784EA8093BC0070
:100DA0008091BC0087FFFCCF809100018093BB0045
:100DB00084E88093BC008091BC0087FFFCCF7093D7
:100DC000BB0084E88093BC008091BC0087FFFCCF0F
:100DD0006093BB0084E88093BC008091BC0087FFD7
:100DE000FCCF84EA8093BC008091BC0087FFFCCFDD
:100DF000809100018F5F8093BB0084E88093BC00EA
:100E00008091BC0087FFFCCFFA0184EC222371F0B3
:100E1000213009F484E88093BC009091BC0097FFD6
:100E2000FCCF9091BB0091932150F0CF84E9809347
:100E3000BC0080E0089594EA24E89093BC0080917F
:100E4000BC0087FFFCCF809100018093BB00209302
:100E5000BC008091BC0087FFFCCF8091B900883135
:100E600061F784EA8093BC008091BC0087FFFCCFCF
:100E7000809100018093BB0084E88093BC00809146
:100E8000BC0087FFFCCF7093BB0084E88093BC005C
:100E90008091BC0087FFFCCF6093BB0084E8809307
:100EA000BC008091BC0087FFFCCF4093BB0084E86E
:100EB0008093BC008091BC0087FFFCCF84E98093C5
:100EC000BC0080E008950E941B07EFE0F7E2319735
:100ED000F1F700C000000895FB01E20FF11DDC01F5
:100EE0002C9130E021503109262B372BE217F307E4
:100EF00010F0F90131968E2F861B24EA34E82093F6
:100F0000BC009091BC0097FFFCCF909100019093A2
:100F1000BB003093BC009091BC0097FFFCCF909138
:100F2000B900983161F794EA9093BC009091BC00AD
:100F300097FFFCCF909100019093BB0094E89093B1
:100F4000BC009091BC0097FFFCCF7093BB0094E86D
:100F50009093BC009091BC0097FFFCCF6093BB00C6
:100F600094E89093BC009091BC0097FFFCCFFA01ED
:100F7000982F24E8992359F031913093BB002093A6
:100F8000BC003091BC0037FFFCCF9150F3CF94E907
:100F90009093BC000895CF92DF92EF92FF921F933F
:100FA000CF93DF936C017A01122FEB01212FA70160
:100FB000BE01C6010E946C07282F30E0C20FD31F6C
:100FC000181BE20EF31E1111F1CF80E0DF91CF91DB
:100FD0001F91FF90EF90DF90CF9008950E94CB0774
:100FE000EFE0F7E23197F1F700C000000895CF93EA
:100FF000DF9300D000D000D0CDB7DEB7CE01019690
:101000000E945601109206018AE0C82ED12CFF24BE
:10101000FA9497E6B92E24E6A22EE0910601F0E0BC
:10102000CE16DF06D0F3E95EF74F0C94D209220802
:1010300039084608550864089A089A08AE08CE0888
:101040002B098B09F7B81AB860E081E00E946B03A6
:101050008091060181110DC01B99FACF8091070183
:101060008823B1F3809106018F5F80930601EA988F
:10107000EFCFFAB80E94CC02CE0101960E945B022B
:10108000809106018F5F80930601C7CFCE01019644
:101090000E94160281115DC0CE0101960E945E0180
:1010A000CE0101960E947201F1CFCE0101960E94FD
:1010B000160281114EC0CE0101960E945E01CE0142
:1010C00001960E947201F1CFCE0101960E94160294
:1010D000811109C0CE0101960E945E01CE010196E8
:1010E0000E947201F1CF809104018F5F809304010F
:1010F000CE0101960E941602882349F0CE01019686
:101100000E945E0162E382E30E94E302F1CF8091DC
:101110000701823749F0863709F07FCF80910401BB
:10112000833009F07ACFACCF80910401863009F08A
:1011300074CFA6CFCE0101960E941602811109C07C
:10114000CE0101960E945E01CE0101960E947201BD
:10115000F1CFCE0101960E94D70192CF8091070175
:10116000CE0101960E941602811109C0CE0101969E
:101170000E945E01CE0101960E947201F1CFCE0164
:1011800001960E941602882349F0CE0101960E9422
:101190005E0162E382E30E94E302F1CFCE01019699
:1011A0000E94D701CE0101960E942802811109C038
:1011B000CE0101960E945E01CE0101960E9472014D
:1011C000F1CF809107018637A1F4CE0101960E94EC
:1011D0005B0203E0CE0101960E94160281110FC04E
:1011E000CE0101960E945E01CE0101960E9472011D
:1011F000F1CFCE0101960E945B0201E0EBCFCE0160
:1012000001960E94D701E12C10E08E2D90E080170E
:101210009107E4F4CE0101960E941602811109C0E3
:10122000CE0101960E945E01CE0101960E947201DC
:10123000F1CFCE0101960E941602882329F06CE3BB
:101240008CE30E94E302F5CFE394DFCF80910601A7
:101250008F5F80930601CE0101960E9428028111C2
:1012600009C0CE0101960E945E01CE0101960E9446
:101270007201F1CF62E070E084E40E94CF0363E08A
:1012800070E084E40E94CF0364E184E10E94E30201
:101290002FEF81EE94E0215080409040E1F700C0B4
:1012A000000062E070E084E40E94020463E070E009
:1012B00084E40E9402046AE08AE00E94E3022FE7CD
:1012C00088E391E0215080409040E1F700C00000A9
:1012D00060E080E00E94E30210E0CE0101960E94EF
:1012E0002802811105C0CE0101960E94A101F5CF0F
:1012F000CE0101960E942802882329F0CE01019692
:101300000E94A101F5CF1F5F193039F780910601C6
:101310008F5F80930601F7B811B8CE0106960E9440
:10132000250161E081E00E943403809106018A304A
:1013300001F561E0CE0106960E942E018C0160E06D
:10134000CE0106960E942E010C39134060F0A09247
:1013500003018FE798E321E0815090402040E1F7BE
:1013600000C00000E2CF8C399340F8F2B092030144
:10137000F0CFCE0106960E942B014FCE97FB072E91
:1013800016F4009407D077FD09D00E94D80907FC15
:1013900005D03EF4909581959F4F08957095619585
:1013A0007F4F0895EE0FFF1F0590F491E02D0994F3
:1013B000AA1BBB1B51E107C0AA1FBB1FA617B7077B
:1013C00010F0A61BB70B881F991F5A95A9F7809597
:1013D0009095BC01CD0108955058BB27AA270E94C3
:1013E000040A0C944E0B0E94400B38F00E94470BED
:1013F00020F039F49F3F19F426F40C943D0B0EF4C1
:10140000E095E7FB0C94370BE92F0E945F0B58F334
:10141000BA17620773078407950720F079F4A6F5D9
:101420000C94810B0EF4E0950B2EBA2FA02D0B011E
:10143000B90190010C01CA01A0011124FF27591B19
:1014400099F0593F50F4503E68F11A16F040A22F1F
:10145000232F342F4427585FF3CF46953795279590
:10146000A795F0405395C9F77EF41F16BA0B620B8F
:10147000730B840BBAF09150A1F0FF0FBB1F661FD6
:10148000771F881FC2F70EC0BA0F621F731F841F19
:1014900048F4879577956795B795F7959E3F08F03F
:1014A000B0CF9395880F08F09927EE0F9795879501
:1014B00008950E946D0A0C944E0B0E94470B58F041
:1014C0000E94400B40F029F45F3F29F00C94370B49
:1014D00051110C94820B0C943D0B0E945F0B68F32E
:1014E0009923B1F3552391F3951B550BBB27AA27DD
:1014F00062177307840738F09F5F5F4F220F331F17
:10150000441FAA1FA9F335D00E2E3AF0E0E832D0DE
:1015100091505040E695001CCAF72BD0FE2F29D0E1
:10152000660F771F881FBB1F261737074807AB07B3
:10153000B0E809F0BB0B802DBF01FF2793585F4F28
:101540003AF09E3F510578F00C94370B0C94820BC7
:101550005F3FE4F3983ED4F3869577956795B7950A
:10156000F7959F5FC9F7880F911D9695879597F915
:101570000895E1E0660F771F881FBB1F621773078E
:101580008407BA0720F0621B730B840BBA0BEE1FA3
:1015900088F7E09508950E94670B88F09F5798F0B0
:1015A000B92F9927B751B0F0E1F0660F771F881F68
:1015B000991F1AF0BA95C9F714C0B13091F00E9482
:1015C000810BB1E008950C94810B672F782F882749
:1015D000B85F39F0B93FCCF3869577956795B395A9
:1015E000D9F73EF490958095709561957F4F8F4F18
:1015F0009F4F0895E89409C097FB3EF4909580951D
:10160000709561957F4F8F4F9F4F9923A9F0F92FC8
:1016100096E9BB279395F695879577956795B79546
:10162000F111F8CFFAF4BB0F11F460FF1BC06F5F2C
:101630007F4F8F4F9F4F16C0882311F096E911C03E
:10164000772321F09EE8872F762F05C0662371F05F
:1016500096E8862F70E060E02AF09A95660F771F73
:10166000881FDAF7880F9695879597F9089597F967
:101670009F6780E870E060E008959FEF80EC089538
:1016800000240A9416161706180609060895002461
:101690000A9412161306140605060895092E0394DB
:1016A000000C11F4882352F0BB0F40F4BF2B11F44F
:1016B00060FF04C06F5F7F4F8F4F9F4F089557FDAE
:1016C0009058440F551F59F05F3F71F04795880FB0
:1016D00097FB991F61F09F3F79F087950895121647
:1016E00013061406551FF2CF4695F1DF08C01616F3
:1016F00017061806991FF1CF8695710561050894A4
:101700000895E894BB2766277727CB0197F90895BA
:101710000E949B0B0C944E0B0E94400B38F00E94D1
:10172000470B20F0952311F00C94370B0C943D0BD4
:1017300011240C94820B0E945F0B70F3959FC1F3F0
:10174000950F50E0551F629FF001729FBB27F00D6F
:10175000B11D639FAA27F00DB11DAA1F649F6627C4
:10176000B00DA11D661F829F2227B00DA11D621F13
:10177000739FB00DA11D621F839FA00D611D221FCD
:10178000749F3327A00D611D231F849F600D211DB1
:10179000822F762F6A2F11249F5750409AF0F1F034
:1017A00088234AF0EE0FFF1FBB1F661F771F881F9D
:1017B00091505040A9F79E3F510580F00C94370B93
:1017C0000C94820B5F3FE4F3983ED4F386957795B3
:1017D0006795B795F795E7959F5FC1F7FE2B880F43
:0E17E000911D9695879597F90895F894FFCF7F
:0217EE00A00059
:00000001FF
