:100000000C943E000C945B000C945B000C945B0021
:100010000C945B000C945B000C945B000C945B00F4
:100020000C945B000C945B000C945B000C945B00E4
:100030000C945B000C945B000C945B000C945B00D4
:100040000C945B000C945B000C945B000C945B00C4
:100050000C945B000C945B000C945B000C945B00B4
:100060000C945B000C945B000C945B000C945B00A4
:100070000C945B000C945B000C945B0011241FBE7D
:10008000CFEFD8E0DEBFCDBF11E0A0E0B1E0EAE302
:10009000F4E102C005900D92A230B107D9F721E03A
:1000A000A2E0B1E001C01D92A530B207E1F70E94C5
:1000B0001E070C941B0A0C940000860F911DFC0176
:1000C00080810895FC0111B810821182128213827E
:1000D0001482089542E050E020B130E0042E02C0C6
:1000E000359527950A94E2F72170FC012193CF0101
:1000F0004F5F5F4F4730510579F70895CF93DF93F6
:10010000EC0162E070E084E40E94290363E070E0A7
:1001100084E40E9429038A81811106C099818B8120
:10012000992341F0882359F066E486E4DF91CF916A
:100130000C940A029881992329F0811103C06DE281
:1001400081E4F4CF811103C08C81882319F061E42C
:100150008DE2ECCFDF91CF91089562E070E084E40E
:100160000E94F60263E070E084E40E94290360E5E7
:1001700080E50E940A022FE789EA93E0215080403F
:100180009040E1F700C000006CE38CE30C940A029D
:1001900062E070E084E40E94290363E070E084E49C
:1001A0000E94F60260E580E50E940A022FE789EAD4
:1001B00093E0215080409040E1F700C000006CE3E4
:1001C0008CE30C940A02CF93DF93EC016CE38CE395
:1001D0000E940A022FEF87E893E12150804090406F
:1001E000E1F700C00000CE010E94AD00CE010E94E8
:1001F0006A008A818823D1F360E080E0DF91CF91AB
:100200000C940A02CF93DF93EC0160E580E50E9435
:100210000A022FEF87E893E1215080409040E1F7F8
:1002200000C00000CE010E94C8008A81811104C074
:10023000CE010E946A00F9CF60E080E0DF91CF91AB
:100240000C940A02FC0180819281882331F0818123
:10025000882319F0892F911106C0892F992319F04D
:100260008381811184812FEF31EE94E02150304061
:100270009040E1F700C00000811110C080819281A0
:10028000882331F08181882319F0892F911106C0CC
:10029000892F992319F08381811184810895CF9347
:1002A000DF93EC018881811127C08981811124C0ED
:1002B0008A81811121C08B8181111EC08C818111A5
:1002C0001BC02FEF81EE94E0215080409040E1F779
:1002D00000C00000CE010E946A00888181110CC01C
:1002E0008981811109C08A81811106C08B818111A8
:1002F00003C08C81882321F080E0DF91CF910895A5
:1003000081E0FBCFCF93DF93EC010E94AD00CE01E3
:100310000E946A00CE010E944F018823C1F38A81A6
:10032000811104C0CE010E946A00F9CF60E080E034
:10033000DF91CF910C940A02CF93DF93EC010E94DE
:10034000C800CE010E946A00CE010E944F0188239E
:10035000C1F38A81811104C0CE010E946A00F9CFE5
:1003600060E080E0DF91CF910C940A028FEF8AB9B0
:1003700089B1843051F48FE19EE40197F1F700C018
:10038000000099B181E0943009F080E00895109266
:10039000B200E0EBF0E020812F7720832081206401
:1003A000208320812F7C2083208122602083208154
:1003B0002E7F2083E1EBF0E02081277F20832081C6
:1003C000276020839B01AC010E9413089B01AC01B4
:1003D00060E070E284EF95E40E947F080E94F108DB
:1003E0006093B3000895F8941092850010928400F1
:1003F000E0E8F0E08081806C80838081806380838E
:1004000080818160808382E08093810010928200ED
:1004100078940895CF93C62F682F70E080E090E025
:100420000E9422092AE939E949E55FE30E94AE0901
:100430000E94F10870E080E090E00E9422099B0198
:10044000AC0160E070E088EC92E40E94120820E0C9
:1004500030E04FE753E40E94AE0920E030E048EC82
:1004600052E40E947F080E94F10870938900609313
:1004700088006C2F70E080E090E00E9422099B01D0
:10048000AC0160E070E088EC92E40E94120820E089
:1004900030E04FE753E40E94AE0920E030E048EC42
:1004A00052E40E947F080E94F10870938B006093D1
:1004B0008A00CF910895F894E89AE9E6F0E0208167
:1004C000982F990F262B922B9083208191E08927DA
:1004D000880F6927862B80958223808378940895DE
:1004E000F894E99AE9E6F0E0908144E0649F900195
:1004F0001124922B48E0849F90011124922B908329
:10050000308121E0822748E0849FC00111246227C6
:1005100024E0629FB0011124862B80958323808381
:1005200078940895F894EA9AE9E6F0E0908140E141
:10053000649F90011124922B40E2849F900111242A
:10054000922B9083308121E0822740E2849FC0017A
:100550001124622720E1629FB0011124862B80952F
:100560008323808378940895F8941092B200E0EB8E
:10057000F0E08081806C808380818C7F8083E1EBE0
:10058000F0E080818560808380818F7E80838081A0
:1005900088608083808180648083E0E7F0E08081F0
:1005A0008260808378940895F8941092B200E0EB12
:1005B000F0E09081906C908390819C7F9083E1EB40
:1005C000F0E090819560908390819F7E90839081F0
:1005D00098609083908190649083E0E7F0E0908150
:1005E000926090838093B30078940895823499F058
:1005F00018F4813431F008958334B9F08434F9F07B
:10060000089582B121E030E001C0220F6A95EAF737
:10061000822B82B9089585B121E030E001C0220F1C
:100620006A95EAF7822B85B9089588B121E030E018
:1006300001C0220F6A95EAF7822B88B908958BB121
:1006400021E030E001C0220F6A95EAF7822B8BB9D6
:1006500008958234A1F018F4813431F00895833480
:10066000C9F0843411F1089522B181E090E001C015
:10067000880F6A95EAF78095822382B9089525B19B
:1006800081E090E001C0880F6A95EAF780958223A7
:1006900085B9089528B181E090E001C0880F6A957E
:1006A000EAF78095822388B908952BB181E090E024
:1006B00001C0880F6A95EAF7809582238BB9089567
:1006C0009091C00095FFFCCF8093C6000895809163
:1006D000C00087FFFCCF8091C60008951092C5002E
:1006E0008FEC8093C400E0ECF0E080818D7F80830C
:1006F000E1ECF0E08081806C808380818061808388
:1007000080818860808380818B7F8083E2ECF0E051
:1007100080818F73808380818F7C808380818870CB
:1007200080838081866080830895CF92DF92EF92EC
:10073000FF920F931F93CF93DF936B01EA0179012F
:100740008C159D0598F48C010F5F1F4FAE01BC0105
:10075000C7010E947D058FE097E20197F1F700C085
:10076000000088810E946003C801EACFDF91CF9129
:100770001F910F91FF90EF90DF90CF90089590E040
:10078000FC01BD97E532F10508F0E3C0E653FC4FEC
:100790000C94F807EF03F503FA03FF0304040904BC
:1007A0000E04130418041D04220427042C0431042D
:1007B00036043B04400445044A044F0454045904DD
:1007C0005E04630468046D04720477047C0481048D
:1007D00086048B04900495049A049F04A40460E0AA
:1007E00070E08CED92E40C94C7016BE774E189EE44
:1007F00092E4F9CF67E271EF86EF92E4F4CF61E221
:1008000070ED82E093E4EFCF6CE477E98AE093E463
:10081000EACF6EEF74ED82E193E4E5CF61E270E937
:100820008BE193E4E0CF62E670ED84E293E4DBCF0A
:100830006FE27DE98EE293E4D6CF60E070E089E379
:1008400093E4D1CF60E070E084E493E4CCCF66E63B
:1008500076EA8FE493E4C7CF60E070E08CE593E440
:10086000C2CF6EEF74E189E693E4BDCF67E271EF2A
:1008700086E793E4B8CF64EA70ED82E893E4B3CFFF
:100880006AE077E98AE893E4AECF6BE774ED82E93A
:1008900093E4A9CF64EA70E98BE993E4A4CF62E41E
:1008A00070ED84EA93E49FCF67ED73EA8EEA93E4F8
:1008B0009ACF60E070E089EB93E495CF60E070E060
:1008C00084EC93E490CF66E676EA8FEC93E48BCFEA
:1008D00060E070E08CED93E486CF6BE774E189EE25
:1008E00093E481CF6CEE71EF86EF93E47CCF60E010
:1008F00070ED82E094E477CF6AE077E98AE094E4EF
:1009000072CF6FE175ED82E194E46DCF64EA70E936
:100910008BE194E468CF64EA70ED84E294E463CF01
:100920006FE27DE98EE294E45ECF6CE57FEF88E3D1
:1009300094E459CF60E070E084E494E454CF66E638
:1009400076EA8FE494E44FCF60E070E08CE594E4C5
:100950004ACF0895EF92FF920F931F93CF93DF93A7
:10096000C82FD62F79010E94F301F70180818111F0
:100970000AC0C13009F4C083DF91CF911F910F915C
:10098000FF90EF900895C03609F480C020F5C4347C
:1009900009F45AC060F4C23009F444C0C93061F7A8
:1009A00084B58F7B84BD84B58F7784BDE5CFC53496
:1009B00009F44CC0C83401F784B58F7784BD84B581
:1009C000806484BD8D2FDF91CF911F910F91FF9097
:1009D000EF900C94BF03C33609F43EC0C0F4C13697
:1009E00009F454C0C23641F65A985B9824E6D29F67
:1009F000C00111246FEF70E00E94E407862FDF91A1
:100A0000CF911F910F91FF90EF900C940A02C53681
:100A100009F447C040F1CF3F09F0AECF81E0F801C3
:100A20008083AACFF9E1DF9FC001112420E030E0EC
:100A300040ED57E02817390709F49ECFFA013197A6
:100A4000F1F72F5F3F4FF6CFD2B996CF92B18D2FEE
:100A50008095892382B990CF5A9A5B9AE4E6DE9F0B
:100A6000C0011124C7CF1092890010928800109203
:100A70008B0010928A005B9A5A98FFEF29E688E172
:100A8000F15020408040E1F700C000008FEF90E07F
:100A9000909389008093880090938B0080938A00C4
:100AA0006BCF109289001092880010928B001092E8
:100AB0008A005A9A5B989FEFE9E6F8E19150E0408E
:100AC000F040E1F7E1CF089580EA809301011092B0
:100AD000B90080E28093B800089520E8FC012083EB
:100AE0000C946405982F9370891305C0880F806A51
:100AF0008093010108958FEF089594EA24E890937C
:100B0000BC008091BC0087FFFCCF809101018093E5
:100B1000BB002093BC008091BC0087FFFCCF80917C
:100B2000B900883161F784EA8093BC008091BC00F1
:100B300087FFFCCF809101018093BB0084E8809304
:100B4000BC008091BC0087FFFCCF7093BB0084E8A1
:100B50008093BC008091BC0087FFFCCF6093BB00FA
:100B600084E88093BC008091BC0087FFFCCF80911B
:100B7000BC0087FFFCCF84EA8093BC008091BC005E
:100B800087FFFCCF809101018F5F8093BB0084E8D9
:100B90008093BC008091BC0087FFFCCF84E88093E9
:100BA000BC008091BC0087FFFCCF8091BB00FA01A4
:100BB000808384E98093BC0080E0089594EA34E85F
:100BC0009093BC008091BC0087FFFCCF8091010115
:100BD0008093BB003093BC008091BC0087FFFCCFAA
:100BE0008091B900883161F784EA8093BC008091DC
:100BF000BC0087FFFCCF809101018093BB0084E89B
:100C00008093BC008091BC0087FFFCCF7093BB0039
:100C100084E88093BC008091BC0087FFFCCF609388
:100C2000BB0084E88093BC008091BC0087FFFCCFB0
:100C300084EA8093BC008091BC0087FFFCCF809148
:100C400001018F5F8093BB0084E88093BC0080919A
:100C5000BC0087FFFCCFFA0184EC222371F0213025
:100C600009F484E88093BC009091BC0097FFFCCF0E
:100C70009091BB0091932150F0CF84E98093BC0008
:100C800080E0089594EA24E89093BC008091BC0031
:100C900087FFFCCF809101018093BB002093BC00B3
:100CA0008091BC0087FFFCCF8091B900883161F74B
:100CB00084EA8093BC008091BC0087FFFCCF8091C8
:100CC00001018093BB0084E88093BC008091BC004C
:100CD00087FFFCCF7093BB0084E88093BC008091B9
:100CE000BC0087FFFCCF6093BB0084E88093BC000E
:100CF0008091BC0087FFFCCF4093BB0084E88093C9
:100D0000BC008091BC0087FFFCCF84E98093BC00CD
:100D100080E008950E944206EFE0F7E23197F1F794
:100D200000C000000895FB01E20FF11DDC012C91D1
:100D300030E021503109262B372BE217F30710F052
:100D4000F90131968E2F861B24EA34E82093BC00EB
:100D50009091BC0097FFFCCF909101019093BB0054
:100D60003093BC009091BC0097FFFCCF9091B900EC
:100D7000983161F794EA9093BC009091BC0097FF82
:100D8000FCCF909101019093BB0094E89093BC003C
:100D90009091BC0097FFFCCF7093BB0094E89093B8
:100DA000BC009091BC0097FFFCCF6093BB0094E81F
:100DB0009093BC009091BC0097FFFCCFFA01982F54
:100DC00024E8992359F031913093BB002093BC0063
:100DD0003091BC0037FFFCCF9150F3CF94E9909352
:100DE000BC000895CF92DF92EF92FF921F93CF93B2
:100DF000DF936C017A01122FEB01212FA701BE01B5
:100E0000C6010E949306282F30E0C20FD31F181B83
:100E1000E20EF31E1111F1CF80E0DF91CF911F910F
:100E2000FF90EF90DF90CF9008950E94F206EFE0E0
:100E3000F7E23197F1F700C000000895CF93DF93F8
:100E400000D000D01F92CDB7DEB7CE0101960E9430
:100E500062008FEF8AB90E94F30100E010E084E0A5
:100E6000F82E0130110509F16CF401151105C9F7CF
:100E7000809100018637B1F482E08093020101E0A5
:100E800010E0EFCF0230110509F45FC00330110507
:100E900041F7CE0101960E946A00CE0101960E94A0
:100EA0007E00DFCFF0920201EACFCE0101960E94D0
:100EB0002201811109C0CE0101960E946A00CE0173
:100EC00001960E947E00F1CF809103018F5F809395
:100ED0000301209103018091020130E090E001962E
:100EE0002817390711F5CE0101960E94AD0062E086
:100EF000CE0101960E945D00882329F0CE01019663
:100F00000E946A00F4CF62E0CE0101960E945D006B
:100F1000811105C0CE0101960E946A00F4CF60E005
:100F200080E00E940A0202E010E0CE0101960E94D9
:100F30002201882309F495CFCE0101960E946A0010
:100F400062E382E30E940A02F0CFCE0101960E9482
:100F50004F01811109C0CE0101960E946A00CE01A5
:100F600001960E947E00F1CF6CE38CE30E940A029E
:100F70002FEF89E698E1215080409040E1F700C0D2
:100F8000000080910001863799F4CE0101960E94FD
:100F90008201CE0101960E94220181110EC0CE0174
:100FA00001960E946A00CE0101960E947E00F1CF58
:100FB000CE0101960E949C01ECCFCE0101960E94C9
:100FC000E30003E010E04DCF97FB072E16F40094EA
:100FD00007D077FD09D00E94FE0707FC05D03EF43C
:100FE000909581959F4F0895709561957F4F0895D5
:100FF000EE0FFF1F0590F491E02D0994AA1BBB1B77
:1010000051E107C0AA1FBB1FA617B70710F0A61B08
:10101000B70B881F991F5A95A9F780959095BC0129
:10102000CD0108955058BB27AA270E942A080C9486
:1010300074090E94660938F00E946D0920F039F4A5
:101040009F3F19F426F40C9463090EF4E095E7FB36
:101050000C945D09E92F0E94850958F3BA176207BD
:1010600073078407950720F079F4A6F50C94A70977
:101070000EF4E0950B2EBA2FA02D0B01B9019001B3
:101080000C01CA01A0011124FF27591B99F0593FF7
:1010900050F4503E68F11A16F040A22F232F342F3F
:1010A0004427585FF3CF469537952795A795F0408D
:1010B0005395C9F77EF41F16BA0B620B730B840BA2
:1010C000BAF09150A1F0FF0FBB1F661F771F881F5A
:1010D000C2F70EC0BA0F621F731F841F48F48795B2
:1010E00077956795B795F7959E3F08F0B0CF9395A4
:1010F000880F08F09927EE0F9795879508950E941D
:1011000093080C9474090E946D0958F00E946609B6
:1011100040F029F45F3F29F00C945D0951110C94C3
:10112000A8090C9463090E94850968F39923B1F317
:10113000552391F3951B550BBB27AA2762177307FD
:10114000840738F09F5F5F4F220F331F441FAA1F91
:10115000A9F335D00E2E3AF0E0E832D0915050404D
:10116000E695001CCAF72BD0FE2F29D0660F771FFB
:10117000881FBB1F261737074807AB07B0E809F0E1
:10118000BB0B802DBF01FF2793585F4F3AF09E3F66
:10119000510578F00C945D090C94A8095F3FE4F3C5
:1011A000983ED4F3869577956795B795F7959F5FA9
:1011B000C9F7880F911D9695879597F90895E1E0F5
:1011C000660F771F881FBB1F621773078407BA0754
:1011D00020F0621B730B840BBA0BEE1F88F7E095AF
:1011E00008950E948D0988F09F5798F0B92F99278C
:1011F000B751B0F0E1F0660F771F881F991F1AF002
:10120000BA95C9F714C0B13091F00E94A709B1E0B6
:1012100008950C94A709672F782F8827B85F39F0B5
:10122000B93FCCF3869577956795B395D9F73EF49A
:1012300090958095709561957F4F8F4F9F4F089542
:10124000E89409C097FB3EF4909580957095619560
:101250007F4F8F4F9F4F9923A9F0F92F96E9BB2716
:101260009395F695879577956795B795F111F8CF92
:10127000FAF4BB0F11F460FF1BC06F5F7F4F8F4FFD
:101280009F4F16C0882311F096E911C0772321F0F3
:101290009EE8872F762F05C0662371F096E8862F8B
:1012A00070E060E02AF09A95660F771F881FDAF7E2
:1012B000880F9695879597F9089597F99F6780E825
:1012C00070E060E008959FEF80EC089500240A9498
:1012D0001616170618060906089500240A94121611
:1012E0001306140605060895092E0394000C11F444
:1012F000882352F0BB0F40F4BF2B11F460FF04C0F1
:101300006F5F7F4F8F4F9F4F089557FD9058440F49
:10131000551F59F05F3F71F04795880F97FB991F54
:1013200061F09F3F79F08795089512161306140611
:10133000551FF2CF4695F1DF08C01616170618069E
:10134000991FF1CF86957105610508940895E89479
:10135000BB2766277727CB0197F908950E94C1091B
:101360000C9474090E94660938F00E946D0920F0FF
:10137000952311F00C945D090C94630911240C94CD
:10138000A8090E94850970F3959FC1F3950F50E05D
:10139000551F629FF001729FBB27F00DB11D639F27
:1013A000AA27F00DB11DAA1F649F6627B00DA11DCD
:1013B000661F829F2227B00DA11D621F739FB00D73
:1013C000A11D621F839FA00D611D221F749F3327E3
:1013D000A00D611D231F849F600D211D822F762F7C
:1013E0006A2F11249F5750409AF0F1F088234AF059
:1013F000EE0FFF1FBB1F661F771F881F91505040C5
:10140000A9F79E3F510580F00C945D090C94A80942
:101410005F3FE4F3983ED4F3869577956795B7954B
:10142000F795E7959F5FC1F7FE2B880F911D969565
:0A143000879597F90895F894FFCF0F
:02143A0076A09A
:00000001FF
